./coin-cli gettransaction "d824c77a3f935cd2b387659cb3a96ba9d8175c2e51074d7b7fb4a366f2d8f569"
{
  "amount": 0.00000000,
  "fee": -0.00229800,
  "confirmations": 918,
  "blockhash": "eb21d0fc8bce38b1f9d65ad4b600492e54151d548006872d6b0cf6ef7915f1c4",
  "blockindex": 2,
  "blocktime": 1555090792,
  "txid": "d824c77a3f935cd2b387659cb3a96ba9d8175c2e51074d7b7fb4a366f2d8f569",
  "walletconflicts": [
  ],
  "time": 1555090539,
  "timereceived": 1555090539,
  "bip125-replaceable": "no",
  "details": [
    {
      "account": "rajkumar",
      "address": "REHXPLrFH49fecqjbMU3xD8MFgKFDYWB8f",
      "category": "send",
      "amount": -4000000.00000000,
      "label": "Vera Cruz Admin",
      "vout": 1,
      "fee": -0.00229800,
      "abandoned": false
    }, 
    {
      "account": "Vera Cruz Admin",
      "address": "REHXPLrFH49fecqjbMU3xD8MFgKFDYWB8f",
      "category": "receive",
      "amount": 4000000.00000000,
      "label": "Vera Cruz Admin",
      "vout": 1
    }
  ],
  "hex": "020000000f228d61667042cd62841cda9829084f0659ec3c5f2ced81035f163761fef4987a000000006a4730440220040678dd2c766442428bc663e01eb22ae74b6df7ee66f36ba525b8d5658416e9022018f7567df13b1674af48ac52f5f01a3c0f05d131da7cee2222167edd161ad97f012103defb8b2cd8e23b031d7e07aff73f5f4d7f7b7ad2cbebea2fc1f090ef916fc337feffffff252962e80071b968d0dd0259048b129e35f6d1077819a2cf12770f49875941d1010000006b4830450221009fa633490dabfe862a28d102e533c494b546beb7843cf2b99aa597e10f7a76260220234d9adeb89783fe192d10b8fb83e438486cb990e18e63014b43dad6ac8540df012103defb8b2cd8e23b031d7e07aff73f5f4d7f7b7ad2cbebea2fc1f090ef916fc337feffffff2e66b3e3b80f6df5b509af7e2b7f0870db92d42cf872f5ccb455bc938d456ff3000000006b483045022100bc7200be3b18232ce74e02761fa24e8ad9ace913bcbd341c05a665067844b14502201119749803164f5e99570347477a812733987aed6bf3da10e42142c1647c0b2e012103defb8b2cd8e23b031d7e07aff73f5f4d7f7b7ad2cbebea2fc1f090ef916fc337feffffff3fcbd0ebc833abf56baaa4a9a1db10e2208b02175e74d01ee10930e1606a8402000000006a47304402203a68dafb833e3871577136772952973f8aa586197a38bf36561be37108d6abfb022038af35696909485264f93e473a1bde3078c77e99381d6f619561660cca62fb71012102e72080f19798379b935f8e63a1b19609e48691c959cbb209ce2bf46b201658cbfeffffff3fcbd0ebc833abf56baaa4a9a1db10e2208b02175e74d01ee10930e1606a8402010000006b483045022100a4484e0d793064eecd83ce7459cbfd6bed6f8ac3ed0097e017f9dcc93f5667bb02200cf3790c476c6a02bb075dc259458786348012decf5f5c241e36ae1b3540ec2701210377e774a0523e834085139bc8d0202ecea1893db9f5109b3cc3ed791a6ea45faffeffffff5057911c00c2f84589a03c17cdf0581fcdbe9a206084db9a879d15be72ed992f010000006a47304402207bb9b8fc8550869cbd5c5222273d865c502fd000ef1b6314fbae0ba17fc2c592022065d5b154ca52399af9349ae05884bbb0bc2ca3b9342acee97eee23512f5be1dd012102961faa153fa161e60847f823e6523266e26fdfe112ee47d685c9aaa94b00d88afeffffff56a83e7a436599160c7f3b66a9fb61215a1bbd7f8f4129755bbf56a9d252b7db010000006b483045022100c13f1363fa1895c37a6953354004709151526600f97f816eb6c35862881ae2f502200a849dabb5871e6fcff404166558c40f0e0e8a9bcd9c5c5978d7ba3de88741730121025efac30b13d80d3574976ee983f46352161c89bff647b01151c35691437915acfeffffff65e094e2e184aa0a5a4552c038682bdb5d2d135b635c6936abe873ceded6b73a010000006b483045022100fce9cfa91042edc490c3e4584f36fea0d0dc9ef9f55b183ba81b83134e62b50902201eca7fb79342bfe4542bf2ab09a4b2143270dda69d4104844bee0531d08886f1012103fcb192f1ced66fbd1e24ede4ae8597706f48bcb66f497eedccc9a5c4056e0d99feffffff79993d86434449c831aea861f7a1794c30f5fcda5d9fad827715a458db3621b2000000006b483045022100f6dbd81ac004bc6210db203da2cf56bb021131bf16f32ab944e5031ac5f7ed030220759f1391ff30955d3abdf43682797a4c000e59d175771a49d40c6ac91e1ded54012103defb8b2cd8e23b031d7e07aff73f5f4d7f7b7ad2cbebea2fc1f090ef916fc337feffffff858fadc5f29ff46c88369082268b6d4157ac5202088639633a6732ad4c7d5bea010000006b483045022100929ecd791e204022e4d6e9e7887ae3f3395b34ad51dbf1ab21c3879b2f3baa890220369d3fc2b2322829c47200a96aba3c0c9b2fb6220495366d1b21857172cd91f8012103f9e3cc19b01351d06d6b2bbd696ebcb17bfca94b0954696c374b6170ac515f18feffffff94203608390fa7831bbf38b6de06b239bb1fb895eb30cae76537faac0a517839000000006a47304402205b7f67751d7fce975291c7ca3a19acd0e03df0c9357a0d07300be16c2a41533d02202ec2b205eb911e2cadebd734613ae508862f20250312984d8459c91c4bbca3860121028bddd24d800a186e8e0abfaf976166c2b2fa6ae20577ff4132daf31757dee92efeffffffa8733515d439090b119361270b16faf7cb59f3c11f116fce31e7349bcde68e6f000000006a473044022078efc46cf732ebf97f9fe13f4ff00f4b888e080417cd17e64b0605c10e2726b602207101a865606e82997d8586b57e1bb749e6e7dd7d8d226a3abc47386becc78d17012103defb8b2cd8e23b031d7e07aff73f5f4d7f7b7ad2cbebea2fc1f090ef916fc337feffffffe578fabdc44f1e665cd8503026ce2aa25d9da09e90496c114cd7d60453f6c52f010000006b483045022100d223473af30a75de0082e298db2752c6edd88561132709786fdff3662b20b787022011c9c3ae873ba1d043fad9c0eaf94f170a174798ea371c78624e29ff5e85a4ed012103b6f0af010aea4087972cfd827933b338d67b9abd007623fa2fef61b0399be942feffffffec35fecba7851f9b77c9dbd7b9ffa6597c4da37b6b39882252db7861c3f31115010000006a47304402204d54f48595f5b580d71567e1b9c2cbcba0207397a59e1277af9a0ebe58e3f5b8022057d43e47c97b8e22d247b933927116a277963fdeec1d21092c4442a760e09d7a012103defb8b2cd8e23b031d7e07aff73f5f4d7f7b7ad2cbebea2fc1f090ef916fc337fefffffffffdb9bac070e493216d884abc48e6592ab52fb4b39859a8d2b396555cb87c7f000000006b4830450221008b5c9eeb4387c0e6378405766df4dbf4d2ed77ed8709a4b21c37ca82b48e3f8002202d4a7eed5f6733cf81517d9e84ee6138b8f6ebc9c0f589f009f7a15c1b54ec8f012103defb8b2cd8e23b031d7e07aff73f5f4d7f7b7ad2cbebea2fc1f090ef916fc337feffffff02b07b1700000000001976a91471b372e0329ebe0943742f21edb52317005dfa7388ac0000e941cc6b01001976a91436e8bef2d4bc26795134e5354be0e66b30a11cac88ac4a030000"
}



./coin-cli getrawtransaction "d824c77a3f935cd2b387659cb3a96ba9d8175c2e51074d7b7fb4a366f2d8f569"
020000000f228d61667042cd62841cda9829084f0659ec3c5f2ced81035f163761fef4987a000000006a4730440220040678dd2c766442428bc663e01eb22ae74b6df7ee66f36ba525b8d5658416e9022018f7567df13b1674af48ac52f5f01a3c0f05d131da7cee2222167edd161ad97f012103defb8b2cd8e23b031d7e07aff73f5f4d7f7b7ad2cbebea2fc1f090ef916fc337feffffff252962e80071b968d0dd0259048b129e35f6d1077819a2cf12770f49875941d1010000006b4830450221009fa633490dabfe862a28d102e533c494b546beb7843cf2b99aa597e10f7a76260220234d9adeb89783fe192d10b8fb83e438486cb990e18e63014b43dad6ac8540df012103defb8b2cd8e23b031d7e07aff73f5f4d7f7b7ad2cbebea2fc1f090ef916fc337feffffff2e66b3e3b80f6df5b509af7e2b7f0870db92d42cf872f5ccb455bc938d456ff3000000006b483045022100bc7200be3b18232ce74e02761fa24e8ad9ace913bcbd341c05a665067844b14502201119749803164f5e99570347477a812733987aed6bf3da10e42142c1647c0b2e012103defb8b2cd8e23b031d7e07aff73f5f4d7f7b7ad2cbebea2fc1f090ef916fc337feffffff3fcbd0ebc833abf56baaa4a9a1db10e2208b02175e74d01ee10930e1606a8402000000006a47304402203a68dafb833e3871577136772952973f8aa586197a38bf36561be37108d6abfb022038af35696909485264f93e473a1bde3078c77e99381d6f619561660cca62fb71012102e72080f19798379b935f8e63a1b19609e48691c959cbb209ce2bf46b201658cbfeffffff3fcbd0ebc833abf56baaa4a9a1db10e2208b02175e74d01ee10930e1606a8402010000006b483045022100a4484e0d793064eecd83ce7459cbfd6bed6f8ac3ed0097e017f9dcc93f5667bb02200cf3790c476c6a02bb075dc259458786348012decf5f5c241e36ae1b3540ec2701210377e774a0523e834085139bc8d0202ecea1893db9f5109b3cc3ed791a6ea45faffeffffff5057911c00c2f84589a03c17cdf0581fcdbe9a206084db9a879d15be72ed992f010000006a47304402207bb9b8fc8550869cbd5c5222273d865c502fd000ef1b6314fbae0ba17fc2c592022065d5b154ca52399af9349ae05884bbb0bc2ca3b9342acee97eee23512f5be1dd012102961faa153fa161e60847f823e6523266e26fdfe112ee47d685c9aaa94b00d88afeffffff56a83e7a436599160c7f3b66a9fb61215a1bbd7f8f4129755bbf56a9d252b7db010000006b483045022100c13f1363fa1895c37a6953354004709151526600f97f816eb6c35862881ae2f502200a849dabb5871e6fcff404166558c40f0e0e8a9bcd9c5c5978d7ba3de88741730121025efac30b13d80d3574976ee983f46352161c89bff647b01151c35691437915acfeffffff65e094e2e184aa0a5a4552c038682bdb5d2d135b635c6936abe873ceded6b73a010000006b483045022100fce9cfa91042edc490c3e4584f36fea0d0dc9ef9f55b183ba81b83134e62b50902201eca7fb79342bfe4542bf2ab09a4b2143270dda69d4104844bee0531d08886f1012103fcb192f1ced66fbd1e24ede4ae8597706f48bcb66f497eedccc9a5c4056e0d99feffffff79993d86434449c831aea861f7a1794c30f5fcda5d9fad827715a458db3621b2000000006b483045022100f6dbd81ac004bc6210db203da2cf56bb021131bf16f32ab944e5031ac5f7ed030220759f1391ff30955d3abdf43682797a4c000e59d175771a49d40c6ac91e1ded54012103defb8b2cd8e23b031d7e07aff73f5f4d7f7b7ad2cbebea2fc1f090ef916fc337feffffff858fadc5f29ff46c88369082268b6d4157ac5202088639633a6732ad4c7d5bea010000006b483045022100929ecd791e204022e4d6e9e7887ae3f3395b34ad51dbf1ab21c3879b2f3baa890220369d3fc2b2322829c47200a96aba3c0c9b2fb6220495366d1b21857172cd91f8012103f9e3cc19b01351d06d6b2bbd696ebcb17bfca94b0954696c374b6170ac515f18feffffff94203608390fa7831bbf38b6de06b239bb1fb895eb30cae76537faac0a517839000000006a47304402205b7f67751d7fce975291c7ca3a19acd0e03df0c9357a0d07300be16c2a41533d02202ec2b205eb911e2cadebd734613ae508862f20250312984d8459c91c4bbca3860121028bddd24d800a186e8e0abfaf976166c2b2fa6ae20577ff4132daf31757dee92efeffffffa8733515d439090b119361270b16faf7cb59f3c11f116fce31e7349bcde68e6f000000006a473044022078efc46cf732ebf97f9fe13f4ff00f4b888e080417cd17e64b0605c10e2726b602207101a865606e82997d8586b57e1bb749e6e7dd7d8d226a3abc47386becc78d17012103defb8b2cd8e23b031d7e07aff73f5f4d7f7b7ad2cbebea2fc1f090ef916fc337feffffffe578fabdc44f1e665cd8503026ce2aa25d9da09e90496c114cd7d60453f6c52f010000006b483045022100d223473af30a75de0082e298db2752c6edd88561132709786fdff3662b20b787022011c9c3ae873ba1d043fad9c0eaf94f170a174798ea371c78624e29ff5e85a4ed012103b6f0af010aea4087972cfd827933b338d67b9abd007623fa2fef61b0399be942feffffffec35fecba7851f9b77c9dbd7b9ffa6597c4da37b6b39882252db7861c3f31115010000006a47304402204d54f48595f5b580d71567e1b9c2cbcba0207397a59e1277af9a0ebe58e3f5b8022057d43e47c97b8e22d247b933927116a277963fdeec1d21092c4442a760e09d7a012103defb8b2cd8e23b031d7e07aff73f5f4d7f7b7ad2cbebea2fc1f090ef916fc337fefffffffffdb9bac070e493216d884abc48e6592ab52fb4b39859a8d2b396555cb87c7f000000006b4830450221008b5c9eeb4387c0e6378405766df4dbf4d2ed77ed8709a4b21c37ca82b48e3f8002202d4a7eed5f6733cf81517d9e84ee6138b8f6ebc9c0f589f009f7a15c1b54ec8f012103defb8b2cd8e23b031d7e07aff73f5f4d7f7b7ad2cbebea2fc1f090ef916fc337feffffff02b07b1700000000001976a91471b372e0329ebe0943742f21edb52317005dfa7388ac0000e941cc6b01001976a91436e8bef2d4bc26795134e5354be0e66b30a11cac88ac4a030000


./coin-cli decoderawtransaction "020000000f228d61667042cd62841cda9829084f0659ec3c5f2ced81035f163761fef4987a000000006a4730440220040678dd2c766442428bc663e01eb22ae74b6df7ee66f36ba525b8d5658416e9022018f7567df13b1674af48ac52f5f01a3c0f05d131da7cee2222167edd161ad97f012103defb8b2cd8e23b031d7e07aff73f5f4d7f7b7ad2cbebea2fc1f090ef916fc337feffffff252962e80071b968d0dd0259048b129e35f6d1077819a2cf12770f49875941d1010000006b4830450221009fa633490dabfe862a28d102e533c494b546beb7843cf2b99aa597e10f7a76260220234d9adeb89783fe192d10b8fb83e438486cb990e18e63014b43dad6ac8540df012103defb8b2cd8e23b031d7e07aff73f5f4d7f7b7ad2cbebea2fc1f090ef916fc337feffffff2e66b3e3b80f6df5b509af7e2b7f0870db92d42cf872f5ccb455bc938d456ff3000000006b483045022100bc7200be3b18232ce74e02761fa24e8ad9ace913bcbd341c05a665067844b14502201119749803164f5e99570347477a812733987aed6bf3da10e42142c1647c0b2e012103defb8b2cd8e23b031d7e07aff73f5f4d7f7b7ad2cbebea2fc1f090ef916fc337feffffff3fcbd0ebc833abf56baaa4a9a1db10e2208b02175e74d01ee10930e1606a8402000000006a47304402203a68dafb833e3871577136772952973f8aa586197a38bf36561be37108d6abfb022038af35696909485264f93e473a1bde3078c77e99381d6f619561660cca62fb71012102e72080f19798379b935f8e63a1b19609e48691c959cbb209ce2bf46b201658cbfeffffff3fcbd0ebc833abf56baaa4a9a1db10e2208b02175e74d01ee10930e1606a8402010000006b483045022100a4484e0d793064eecd83ce7459cbfd6bed6f8ac3ed0097e017f9dcc93f5667bb02200cf3790c476c6a02bb075dc259458786348012decf5f5c241e36ae1b3540ec2701210377e774a0523e834085139bc8d0202ecea1893db9f5109b3cc3ed791a6ea45faffeffffff5057911c00c2f84589a03c17cdf0581fcdbe9a206084db9a879d15be72ed992f010000006a47304402207bb9b8fc8550869cbd5c5222273d865c502fd000ef1b6314fbae0ba17fc2c592022065d5b154ca52399af9349ae05884bbb0bc2ca3b9342acee97eee23512f5be1dd012102961faa153fa161e60847f823e6523266e26fdfe112ee47d685c9aaa94b00d88afeffffff56a83e7a436599160c7f3b66a9fb61215a1bbd7f8f4129755bbf56a9d252b7db010000006b483045022100c13f1363fa1895c37a6953354004709151526600f97f816eb6c35862881ae2f502200a849dabb5871e6fcff404166558c40f0e0e8a9bcd9c5c5978d7ba3de88741730121025efac30b13d80d3574976ee983f46352161c89bff647b01151c35691437915acfeffffff65e094e2e184aa0a5a4552c038682bdb5d2d135b635c6936abe873ceded6b73a010000006b483045022100fce9cfa91042edc490c3e4584f36fea0d0dc9ef9f55b183ba81b83134e62b50902201eca7fb79342bfe4542bf2ab09a4b2143270dda69d4104844bee0531d08886f1012103fcb192f1ced66fbd1e24ede4ae8597706f48bcb66f497eedccc9a5c4056e0d99feffffff79993d86434449c831aea861f7a1794c30f5fcda5d9fad827715a458db3621b2000000006b483045022100f6dbd81ac004bc6210db203da2cf56bb021131bf16f32ab944e5031ac5f7ed030220759f1391ff30955d3abdf43682797a4c000e59d175771a49d40c6ac91e1ded54012103defb8b2cd8e23b031d7e07aff73f5f4d7f7b7ad2cbebea2fc1f090ef916fc337feffffff858fadc5f29ff46c88369082268b6d4157ac5202088639633a6732ad4c7d5bea010000006b483045022100929ecd791e204022e4d6e9e7887ae3f3395b34ad51dbf1ab21c3879b2f3baa890220369d3fc2b2322829c47200a96aba3c0c9b2fb6220495366d1b21857172cd91f8012103f9e3cc19b01351d06d6b2bbd696ebcb17bfca94b0954696c374b6170ac515f18feffffff94203608390fa7831bbf38b6de06b239bb1fb895eb30cae76537faac0a517839000000006a47304402205b7f67751d7fce975291c7ca3a19acd0e03df0c9357a0d07300be16c2a41533d02202ec2b205eb911e2cadebd734613ae508862f20250312984d8459c91c4bbca3860121028bddd24d800a186e8e0abfaf976166c2b2fa6ae20577ff4132daf31757dee92efeffffffa8733515d439090b119361270b16faf7cb59f3c11f116fce31e7349bcde68e6f000000006a473044022078efc46cf732ebf97f9fe13f4ff00f4b888e080417cd17e64b0605c10e2726b602207101a865606e82997d8586b57e1bb749e6e7dd7d8d226a3abc47386becc78d17012103defb8b2cd8e23b031d7e07aff73f5f4d7f7b7ad2cbebea2fc1f090ef916fc337feffffffe578fabdc44f1e665cd8503026ce2aa25d9da09e90496c114cd7d60453f6c52f010000006b483045022100d223473af30a75de0082e298db2752c6edd88561132709786fdff3662b20b787022011c9c3ae873ba1d043fad9c0eaf94f170a174798ea371c78624e29ff5e85a4ed012103b6f0af010aea4087972cfd827933b338d67b9abd007623fa2fef61b0399be942feffffffec35fecba7851f9b77c9dbd7b9ffa6597c4da37b6b39882252db7861c3f31115010000006a47304402204d54f48595f5b580d71567e1b9c2cbcba0207397a59e1277af9a0ebe58e3f5b8022057d43e47c97b8e22d247b933927116a277963fdeec1d21092c4442a760e09d7a012103defb8b2cd8e23b031d7e07aff73f5f4d7f7b7ad2cbebea2fc1f090ef916fc337fefffffffffdb9bac070e493216d884abc48e6592ab52fb4b39859a8d2b396555cb87c7f000000006b4830450221008b5c9eeb4387c0e6378405766df4dbf4d2ed77ed8709a4b21c37ca82b48e3f8002202d4a7eed5f6733cf81517d9e84ee6138b8f6ebc9c0f589f009f7a15c1b54ec8f012103defb8b2cd8e23b031d7e07aff73f5f4d7f7b7ad2cbebea2fc1f090ef916fc337feffffff02b07b1700000000001976a91471b372e0329ebe0943742f21edb52317005dfa7388ac0000e941cc6b01001976a91436e8bef2d4bc26795134e5354be0e66b30a11cac88ac4a030000"
{
  "txid": "d824c77a3f935cd2b387659cb3a96ba9d8175c2e51074d7b7fb4a366f2d8f569",
  "hash": "d824c77a3f935cd2b387659cb3a96ba9d8175c2e51074d7b7fb4a366f2d8f569",
  "version": 2,
  "size": 2292,
  "vsize": 2292,
  "locktime": 842,
  "vin": [
    {
      "txid": "7a98f4fe6137165f0381ed2c5f3cec59064f082998da1c8462cd427066618d22",
      "vout": 0,
      "scriptSig": {
        "asm": "30440220040678dd2c766442428bc663e01eb22ae74b6df7ee66f36ba525b8d5658416e9022018f7567df13b1674af48ac52f5f01a3c0f05d131da7cee2222167edd161ad97f[ALL] 03defb8b2cd8e23b031d7e07aff73f5f4d7f7b7ad2cbebea2fc1f090ef916fc337",
        "hex": "4730440220040678dd2c766442428bc663e01eb22ae74b6df7ee66f36ba525b8d5658416e9022018f7567df13b1674af48ac52f5f01a3c0f05d131da7cee2222167edd161ad97f012103defb8b2cd8e23b031d7e07aff73f5f4d7f7b7ad2cbebea2fc1f090ef916fc337"
      },
      "sequence": 4294967294
    }, 
    {
      "txid": "d1415987490f7712cfa2197807d1f6359e128b045902ddd068b97100e8622925",
      "vout": 1,
      "scriptSig": {
        "asm": "30450221009fa633490dabfe862a28d102e533c494b546beb7843cf2b99aa597e10f7a76260220234d9adeb89783fe192d10b8fb83e438486cb990e18e63014b43dad6ac8540df[ALL] 03defb8b2cd8e23b031d7e07aff73f5f4d7f7b7ad2cbebea2fc1f090ef916fc337",
        "hex": "4830450221009fa633490dabfe862a28d102e533c494b546beb7843cf2b99aa597e10f7a76260220234d9adeb89783fe192d10b8fb83e438486cb990e18e63014b43dad6ac8540df012103defb8b2cd8e23b031d7e07aff73f5f4d7f7b7ad2cbebea2fc1f090ef916fc337"
      },
      "sequence": 4294967294
    }, 
    {
      "txid": "f36f458d93bc55b4ccf572f82cd492db70087f2b7eaf09b5f56d0fb8e3b3662e",
      "vout": 0,
      "scriptSig": {
        "asm": "3045022100bc7200be3b18232ce74e02761fa24e8ad9ace913bcbd341c05a665067844b14502201119749803164f5e99570347477a812733987aed6bf3da10e42142c1647c0b2e[ALL] 03defb8b2cd8e23b031d7e07aff73f5f4d7f7b7ad2cbebea2fc1f090ef916fc337",
        "hex": "483045022100bc7200be3b18232ce74e02761fa24e8ad9ace913bcbd341c05a665067844b14502201119749803164f5e99570347477a812733987aed6bf3da10e42142c1647c0b2e012103defb8b2cd8e23b031d7e07aff73f5f4d7f7b7ad2cbebea2fc1f090ef916fc337"
      },
      "sequence": 4294967294
    }, 
    {
      "txid": "02846a60e13009e11ed0745e17028b20e210dba1a9a4aa6bf5ab33c8ebd0cb3f",
      "vout": 0,
      "scriptSig": {
        "asm": "304402203a68dafb833e3871577136772952973f8aa586197a38bf36561be37108d6abfb022038af35696909485264f93e473a1bde3078c77e99381d6f619561660cca62fb71[ALL] 02e72080f19798379b935f8e63a1b19609e48691c959cbb209ce2bf46b201658cb",
        "hex": "47304402203a68dafb833e3871577136772952973f8aa586197a38bf36561be37108d6abfb022038af35696909485264f93e473a1bde3078c77e99381d6f619561660cca62fb71012102e72080f19798379b935f8e63a1b19609e48691c959cbb209ce2bf46b201658cb"
      },
      "sequence": 4294967294
    }, 
    {
      "txid": "02846a60e13009e11ed0745e17028b20e210dba1a9a4aa6bf5ab33c8ebd0cb3f",
      "vout": 1,
      "scriptSig": {
        "asm": "3045022100a4484e0d793064eecd83ce7459cbfd6bed6f8ac3ed0097e017f9dcc93f5667bb02200cf3790c476c6a02bb075dc259458786348012decf5f5c241e36ae1b3540ec27[ALL] 0377e774a0523e834085139bc8d0202ecea1893db9f5109b3cc3ed791a6ea45faf",
        "hex": "483045022100a4484e0d793064eecd83ce7459cbfd6bed6f8ac3ed0097e017f9dcc93f5667bb02200cf3790c476c6a02bb075dc259458786348012decf5f5c241e36ae1b3540ec2701210377e774a0523e834085139bc8d0202ecea1893db9f5109b3cc3ed791a6ea45faf"
      },
      "sequence": 4294967294
    }, 
    {
      "txid": "2f99ed72be159d879adb8460209abecd1f58f0cd173ca08945f8c2001c915750",
      "vout": 1,
      "scriptSig": {
        "asm": "304402207bb9b8fc8550869cbd5c5222273d865c502fd000ef1b6314fbae0ba17fc2c592022065d5b154ca52399af9349ae05884bbb0bc2ca3b9342acee97eee23512f5be1dd[ALL] 02961faa153fa161e60847f823e6523266e26fdfe112ee47d685c9aaa94b00d88a",
        "hex": "47304402207bb9b8fc8550869cbd5c5222273d865c502fd000ef1b6314fbae0ba17fc2c592022065d5b154ca52399af9349ae05884bbb0bc2ca3b9342acee97eee23512f5be1dd012102961faa153fa161e60847f823e6523266e26fdfe112ee47d685c9aaa94b00d88a"
      },
      "sequence": 4294967294
    }, 
    {
      "txid": "dbb752d2a956bf5b7529418f7fbd1b5a2161fba9663b7f0c169965437a3ea856",
      "vout": 1,
      "scriptSig": {
        "asm": "3045022100c13f1363fa1895c37a6953354004709151526600f97f816eb6c35862881ae2f502200a849dabb5871e6fcff404166558c40f0e0e8a9bcd9c5c5978d7ba3de8874173[ALL] 025efac30b13d80d3574976ee983f46352161c89bff647b01151c35691437915ac",
        "hex": "483045022100c13f1363fa1895c37a6953354004709151526600f97f816eb6c35862881ae2f502200a849dabb5871e6fcff404166558c40f0e0e8a9bcd9c5c5978d7ba3de88741730121025efac30b13d80d3574976ee983f46352161c89bff647b01151c35691437915ac"
      },
      "sequence": 4294967294
    }, 
    {
      "txid": "3ab7d6dece73e8ab36695c635b132d5ddb2b6838c052455a0aaa84e1e294e065",
      "vout": 1,
      "scriptSig": {
        "asm": "3045022100fce9cfa91042edc490c3e4584f36fea0d0dc9ef9f55b183ba81b83134e62b50902201eca7fb79342bfe4542bf2ab09a4b2143270dda69d4104844bee0531d08886f1[ALL] 03fcb192f1ced66fbd1e24ede4ae8597706f48bcb66f497eedccc9a5c4056e0d99",
        "hex": "483045022100fce9cfa91042edc490c3e4584f36fea0d0dc9ef9f55b183ba81b83134e62b50902201eca7fb79342bfe4542bf2ab09a4b2143270dda69d4104844bee0531d08886f1012103fcb192f1ced66fbd1e24ede4ae8597706f48bcb66f497eedccc9a5c4056e0d99"
      },
      "sequence": 4294967294
    }, 
    {
      "txid": "b22136db58a4157782ad9f5ddafcf5304c79a1f761a8ae31c8494443863d9979",
      "vout": 0,
      "scriptSig": {
        "asm": "3045022100f6dbd81ac004bc6210db203da2cf56bb021131bf16f32ab944e5031ac5f7ed030220759f1391ff30955d3abdf43682797a4c000e59d175771a49d40c6ac91e1ded54[ALL] 03defb8b2cd8e23b031d7e07aff73f5f4d7f7b7ad2cbebea2fc1f090ef916fc337",
        "hex": "483045022100f6dbd81ac004bc6210db203da2cf56bb021131bf16f32ab944e5031ac5f7ed030220759f1391ff30955d3abdf43682797a4c000e59d175771a49d40c6ac91e1ded54012103defb8b2cd8e23b031d7e07aff73f5f4d7f7b7ad2cbebea2fc1f090ef916fc337"
      },
      "sequence": 4294967294
    }, 
    {
      "txid": "ea5b7d4cad32673a633986080252ac57416d8b26829036886cf49ff2c5ad8f85",
      "vout": 1,
      "scriptSig": {
        "asm": "3045022100929ecd791e204022e4d6e9e7887ae3f3395b34ad51dbf1ab21c3879b2f3baa890220369d3fc2b2322829c47200a96aba3c0c9b2fb6220495366d1b21857172cd91f8[ALL] 03f9e3cc19b01351d06d6b2bbd696ebcb17bfca94b0954696c374b6170ac515f18",
        "hex": "483045022100929ecd791e204022e4d6e9e7887ae3f3395b34ad51dbf1ab21c3879b2f3baa890220369d3fc2b2322829c47200a96aba3c0c9b2fb6220495366d1b21857172cd91f8012103f9e3cc19b01351d06d6b2bbd696ebcb17bfca94b0954696c374b6170ac515f18"
      },
      "sequence": 4294967294
    }, 
    {
      "txid": "3978510aacfa3765e7ca30eb95b81fbb39b206deb638bf1b83a70f3908362094",
      "vout": 0,
      "scriptSig": {
        "asm": "304402205b7f67751d7fce975291c7ca3a19acd0e03df0c9357a0d07300be16c2a41533d02202ec2b205eb911e2cadebd734613ae508862f20250312984d8459c91c4bbca386[ALL] 028bddd24d800a186e8e0abfaf976166c2b2fa6ae20577ff4132daf31757dee92e",
        "hex": "47304402205b7f67751d7fce975291c7ca3a19acd0e03df0c9357a0d07300be16c2a41533d02202ec2b205eb911e2cadebd734613ae508862f20250312984d8459c91c4bbca3860121028bddd24d800a186e8e0abfaf976166c2b2fa6ae20577ff4132daf31757dee92e"
      },
      "sequence": 4294967294
    }, 
    {
      "txid": "6f8ee6cd9b34e731ce6f111fc1f359cbf7fa160b276193110b0939d4153573a8",
      "vout": 0,
      "scriptSig": {
        "asm": "3044022078efc46cf732ebf97f9fe13f4ff00f4b888e080417cd17e64b0605c10e2726b602207101a865606e82997d8586b57e1bb749e6e7dd7d8d226a3abc47386becc78d17[ALL] 03defb8b2cd8e23b031d7e07aff73f5f4d7f7b7ad2cbebea2fc1f090ef916fc337",
        "hex": "473044022078efc46cf732ebf97f9fe13f4ff00f4b888e080417cd17e64b0605c10e2726b602207101a865606e82997d8586b57e1bb749e6e7dd7d8d226a3abc47386becc78d17012103defb8b2cd8e23b031d7e07aff73f5f4d7f7b7ad2cbebea2fc1f090ef916fc337"
      },
      "sequence": 4294967294
    }, 
    {
      "txid": "2fc5f65304d6d74c116c49909ea09d5da22ace263050d85c661e4fc4bdfa78e5",
      "vout": 1,
      "scriptSig": {
        "asm": "3045022100d223473af30a75de0082e298db2752c6edd88561132709786fdff3662b20b787022011c9c3ae873ba1d043fad9c0eaf94f170a174798ea371c78624e29ff5e85a4ed[ALL] 03b6f0af010aea4087972cfd827933b338d67b9abd007623fa2fef61b0399be942",
        "hex": "483045022100d223473af30a75de0082e298db2752c6edd88561132709786fdff3662b20b787022011c9c3ae873ba1d043fad9c0eaf94f170a174798ea371c78624e29ff5e85a4ed012103b6f0af010aea4087972cfd827933b338d67b9abd007623fa2fef61b0399be942"
      },
      "sequence": 4294967294
    }, 
    {
      "txid": "1511f3c36178db522288396b7ba34d7c59a6ffb9d7dbc9779b1f85a7cbfe35ec",
      "vout": 1,
      "scriptSig": {
        "asm": "304402204d54f48595f5b580d71567e1b9c2cbcba0207397a59e1277af9a0ebe58e3f5b8022057d43e47c97b8e22d247b933927116a277963fdeec1d21092c4442a760e09d7a[ALL] 03defb8b2cd8e23b031d7e07aff73f5f4d7f7b7ad2cbebea2fc1f090ef916fc337",
        "hex": "47304402204d54f48595f5b580d71567e1b9c2cbcba0207397a59e1277af9a0ebe58e3f5b8022057d43e47c97b8e22d247b933927116a277963fdeec1d21092c4442a760e09d7a012103defb8b2cd8e23b031d7e07aff73f5f4d7f7b7ad2cbebea2fc1f090ef916fc337"
      },
      "sequence": 4294967294
    }, 
    {
      "txid": "7f7cb85c5596b3d2a85998b3b42fb52a59e648bc4a886d2193e470c0bab9fdff",
      "vout": 0,
      "scriptSig": {
        "asm": "30450221008b5c9eeb4387c0e6378405766df4dbf4d2ed77ed8709a4b21c37ca82b48e3f8002202d4a7eed5f6733cf81517d9e84ee6138b8f6ebc9c0f589f009f7a15c1b54ec8f[ALL] 03defb8b2cd8e23b031d7e07aff73f5f4d7f7b7ad2cbebea2fc1f090ef916fc337",
        "hex": "4830450221008b5c9eeb4387c0e6378405766df4dbf4d2ed77ed8709a4b21c37ca82b48e3f8002202d4a7eed5f6733cf81517d9e84ee6138b8f6ebc9c0f589f009f7a15c1b54ec8f012103defb8b2cd8e23b031d7e07aff73f5f4d7f7b7ad2cbebea2fc1f090ef916fc337"
      },
      "sequence": 4294967294
    }
  ],
  "vout": [
    {
      "value": 0.01538992,
      "n": 0,
      "scriptPubKey": {
        "asm": "OP_DUP OP_HASH160 71b372e0329ebe0943742f21edb52317005dfa73 OP_EQUALVERIFY OP_CHECKSIG",
        "hex": "76a91471b372e0329ebe0943742f21edb52317005dfa7388ac",
        "reqSigs": 1,
        "type": "pubkeyhash",
        "addresses": [
          "RKePQWWAbtLXnfVQubdZdXPAy1Fxu4cr9M"
        ]
      }
    }, 
    {
      "value": 4000000.00000000,
      "n": 1,
      "scriptPubKey": {
        "asm": "OP_DUP OP_HASH160 36e8bef2d4bc26795134e5354be0e66b30a11cac OP_EQUALVERIFY OP_CHECKSIG",
        "hex": "76a91436e8bef2d4bc26795134e5354be0e66b30a11cac88ac",
        "reqSigs": 1,
        "type": "pubkeyhash",
        "addresses": [
          "REHXPLrFH49fecqjbMU3xD8MFgKFDYWB8f"
        ]
      }
    }
  ]
}
