transaction IDs:
1) 7a98f4fe6137165f0381ed2c5f3cec59064f082998da1c8462cd427066618d22

css@css-Latitude-E6430:~/MyLife/Projects/vccoin/src$ ./vccoin-cli getrawtransaction "7a98f4fe6137165f0381ed2c5f3cec59064f082998da1c8462cd427066618d22"
0200000001fffdb9bac070e493216d884abc48e6592ab52fb4b39859a8d2b396555cb87c7f010000006b483045022100df59a174b2b622a600fba50d83d9f09bae6cf926f56d40697dd485e259587c9002206a49d519e1868a5afd8a0a6c63b94ef9aef280c6150d128cb57e7a01c95a3ac901210390138484969a7bec2181668f2d7394e06d3fca8788b2b626499620846b0144f9feffffff0200203d88792d00001976a9147003724be041c6469da005f35db6edcfc9b2a36288ac15d529b0fa4b03001976a91433811387a9aa050935121e0437ddede91c8028a388acfb000000
css@css-Latitude-E6430:~/MyLife/Projects/vccoin/src$ ./vccoin-cli decoderawtransaction "0200000001fffdb9bac070e493216d884abc48e6592ab52fb4b39859a8d2b396555cb87c7f010000006b483045022100df59a174b2b622a600fba50d83d9f09bae6cf926f56d40697dd485e259587c9002206a49d519e1868a5afd8a0a6c63b94ef9aef280c6150d128cb57e7a01c95a3ac901210390138484969a7bec2181668f2d7394e06d3fca8788b2b626499620846b0144f9feffffff0200203d88792d00001976a9147003724be041c6469da005f35db6edcfc9b2a36288ac15d529b0fa4b03001976a91433811387a9aa050935121e0437ddede91c8028a388acfb000000"
{
  "txid": "7a98f4fe6137165f0381ed2c5f3cec59064f082998da1c8462cd427066618d22",
  "hash": "7a98f4fe6137165f0381ed2c5f3cec59064f082998da1c8462cd427066618d22",
  "version": 2,
  "size": 226,
  "vsize": 226,
  "locktime": 251,
  "vin": [
    {
      "txid": "7f7cb85c5596b3d2a85998b3b42fb52a59e648bc4a886d2193e470c0bab9fdff",
      "vout": 1,
      "scriptSig": {
        "asm": "3045022100df59a174b2b622a600fba50d83d9f09bae6cf926f56d40697dd485e259587c9002206a49d519e1868a5afd8a0a6c63b94ef9aef280c6150d128cb57e7a01c95a3ac9[ALL] 0390138484969a7bec2181668f2d7394e06d3fca8788b2b626499620846b0144f9",
        "hex": "483045022100df59a174b2b622a600fba50d83d9f09bae6cf926f56d40697dd485e259587c9002206a49d519e1868a5afd8a0a6c63b94ef9aef280c6150d128cb57e7a01c95a3ac901210390138484969a7bec2181668f2d7394e06d3fca8788b2b626499620846b0144f9"
      },
      "sequence": 4294967294
    }
  ],
  "vout": [
    {
      "value": 500000.00000000,
      "n": 0,
      "scriptPubKey": {
        "asm": "OP_DUP OP_HASH160 7003724be041c6469da005f35db6edcfc9b2a362 OP_EQUALVERIFY OP_CHECKSIG",
        "hex": "76a9147003724be041c6469da005f35db6edcfc9b2a36288ac",
        "reqSigs": 1,
        "type": "pubkeyhash",
        "addresses": [
          "RKVTtTyxAwGaVJMKm6GwR2nKkJiGNauWkH"
        ]
      }
    }, 
    {
      "value": 9279649.99570709,
      "n": 1,
      "scriptPubKey": {
        "asm": "OP_DUP OP_HASH160 33811387a9aa050935121e0437ddede91c8028a3 OP_EQUALVERIFY OP_CHECKSIG",
        "hex": "76a91433811387a9aa050935121e0437ddede91c8028a388ac",
        "reqSigs": 1,
        "type": "pubkeyhash",
        "addresses": [
          "RDyXAgEJi922Bh9ZgcL5TkcsZv1UsaHDEo"
        ]
      }
    }
  ]
}

2) d1415987490f7712cfa2197807d1f6359e128b045902ddd068b97100e8622925

css@css-Latitude-E6430:~/MyLife/Projects/vccoin/src$ ./vccoin-cli getrawtransaction "d1415987490f7712cfa2197807d1f6359e128b045902ddd068b97100e8622925"
0200000001a71fe9aa177c64809989d9b89e221bfeb6c346dcaafb3496d0ce21d98c36bc5c010000006b4830450221008268b6969b1eb6338a2da932aeb865622c7830bcf736e6a4a3e7692c15cb55e802201a7f2550fc2e08d2f2fada0d4702d4142638441a90d65633443dbbc0b4ffe7ef0121028bbd1f06041af159f879d939e6300ca659c9c6d0855f2d0bbb06c3243064a35afeffffff02854d6738747903001976a9147f7f3067433e1168d84c2374b718491ed05b751d88ac00203d88792d00001976a9147003724be041c6469da005f35db6edcfc9b2a36288acfb000000
css@css-Latitude-E6430:~/MyLife/Projects/vccoin/src$ ./vccoin-cli decoderawtransaction "0200000001a71fe9aa177c64809989d9b89e221bfeb6c346dcaafb3496d0ce21d98c36bc5c010000006b4830450221008268b6969b1eb6338a2da932aeb865622c7830bcf736e6a4a3e7692c15cb55e802201a7f2550fc2e08d2f2fada0d4702d4142638441a90d65633443dbbc0b4ffe7ef0121028bbd1f06041af159f879d939e6300ca659c9c6d0855f2d0bbb06c3243064a35afeffffff02854d6738747903001976a9147f7f3067433e1168d84c2374b718491ed05b751d88ac00203d88792d00001976a9147003724be041c6469da005f35db6edcfc9b2a36288acfb000000"
{
  "txid": "d1415987490f7712cfa2197807d1f6359e128b045902ddd068b97100e8622925",
  "hash": "d1415987490f7712cfa2197807d1f6359e128b045902ddd068b97100e8622925",
  "version": 2,
  "size": 226,
  "vsize": 226,
  "locktime": 251,
  "vin": [
    {
      "txid": "5cbc368cd921ced09634fbaadc46c3b6fe1b229eb8d9899980647c17aae91fa7",
      "vout": 1,
      "scriptSig": {
        "asm": "30450221008268b6969b1eb6338a2da932aeb865622c7830bcf736e6a4a3e7692c15cb55e802201a7f2550fc2e08d2f2fada0d4702d4142638441a90d65633443dbbc0b4ffe7ef[ALL] 028bbd1f06041af159f879d939e6300ca659c9c6d0855f2d0bbb06c3243064a35a",
        "hex": "4830450221008268b6969b1eb6338a2da932aeb865622c7830bcf736e6a4a3e7692c15cb55e802201a7f2550fc2e08d2f2fada0d4702d4142638441a90d65633443dbbc0b4ffe7ef0121028bbd1f06041af159f879d939e6300ca659c9c6d0855f2d0bbb06c3243064a35a"
      },
      "sequence": 4294967294
    }
  ],
  "vout": [
    {
      "value": 9779649.99593349,
      "n": 0,
      "scriptPubKey": {
        "asm": "OP_DUP OP_HASH160 7f7f3067433e1168d84c2374b718491ed05b751d OP_EQUALVERIFY OP_CHECKSIG",
        "hex": "76a9147f7f3067433e1168d84c2374b718491ed05b751d88ac",
        "reqSigs": 1,
        "type": "pubkeyhash",
        "addresses": [
          "RLuLG8X28fqnuyboyEuJixStSP2sbEQfAj"
        ]
      }
    }, 
    {
      "value": 500000.00000000,
      "n": 1,
      "scriptPubKey": {
        "asm": "OP_DUP OP_HASH160 7003724be041c6469da005f35db6edcfc9b2a362 OP_EQUALVERIFY OP_CHECKSIG",
        "hex": "76a9147003724be041c6469da005f35db6edcfc9b2a36288ac",
        "reqSigs": 1,
        "type": "pubkeyhash",
        "addresses": [
          "RKVTtTyxAwGaVJMKm6GwR2nKkJiGNauWkH"
        ]
      }
    }
  ]
}

3) f36f458d93bc55b4ccf572f82cd492db70087f2b7eaf09b5f56d0fb8e3b3662e

css@css-Latitude-E6430:~/MyLife/Projects/vccoin/src$ ./vccoin-cli getrawtransaction "f36f458d93bc55b4ccf572f82cd492db70087f2b7eaf09b5f56d0fb8e3b3662e"
0200000001c7a671a848e497c2100b6a6ece0e132a5cae46e1356aa7e92d820cb85dee3389000000006a4730440220724c3448e1ede07342e55af53ce4fd645617faff0af9ccb92233f90e551fba3b022040856e74d2418dbc8e9333fab40a657d720f7c8389b5c74cfc1fe3424633dee9012103e4fe2719234615ca77763a82c6cd929c73025539d2c174a1ffb1951f457ab2bafeffffff0200203d88792d00001976a9147003724be041c6469da005f35db6edcfc9b2a36288ac904d6738747903001976a914eef4a085e5fb98772bd18c812d6ce875b68a490c88acf9000000
css@css-Latitude-E6430:~/MyLife/Projects/vccoin/src$ ./vccoin-cli decoderawtransaction "0200000001c7a671a848e497c2100b6a6ece0e132a5cae46e1356aa7e92d820cb85dee3389000000006a4730440220724c3448e1ede07342e55af53ce4fd645617faff0af9ccb92233f90e551fba3b022040856e74d2418dbc8e9333fab40a657d720f7c8389b5c74cfc1fe3424633dee9012103e4fe2719234615ca77763a82c6cd929c73025539d2c174a1ffb1951f457ab2bafeffffff0200203d88792d00001976a9147003724be041c6469da005f35db6edcfc9b2a36288ac904d6738747903001976a914eef4a085e5fb98772bd18c812d6ce875b68a490c88acf9000000"
{
  "txid": "f36f458d93bc55b4ccf572f82cd492db70087f2b7eaf09b5f56d0fb8e3b3662e",
  "hash": "f36f458d93bc55b4ccf572f82cd492db70087f2b7eaf09b5f56d0fb8e3b3662e",
  "version": 2,
  "size": 225,
  "vsize": 225,
  "locktime": 249,
  "vin": [
    {
      "txid": "8933ee5db80c822de9a76a35e146ae5c2a130ece6e6a0b10c297e448a871a6c7",
      "vout": 0,
      "scriptSig": {
        "asm": "30440220724c3448e1ede07342e55af53ce4fd645617faff0af9ccb92233f90e551fba3b022040856e74d2418dbc8e9333fab40a657d720f7c8389b5c74cfc1fe3424633dee9[ALL] 03e4fe2719234615ca77763a82c6cd929c73025539d2c174a1ffb1951f457ab2ba",
        "hex": "4730440220724c3448e1ede07342e55af53ce4fd645617faff0af9ccb92233f90e551fba3b022040856e74d2418dbc8e9333fab40a657d720f7c8389b5c74cfc1fe3424633dee9012103e4fe2719234615ca77763a82c6cd929c73025539d2c174a1ffb1951f457ab2ba"
      },
      "sequence": 4294967294
    }
  ],
  "vout": [
    {
      "value": 500000.00000000,
      "n": 0,
      "scriptPubKey": {
        "asm": "OP_DUP OP_HASH160 7003724be041c6469da005f35db6edcfc9b2a362 OP_EQUALVERIFY OP_CHECKSIG",
        "hex": "76a9147003724be041c6469da005f35db6edcfc9b2a36288ac",
        "reqSigs": 1,
        "type": "pubkeyhash",
        "addresses": [
          "RKVTtTyxAwGaVJMKm6GwR2nKkJiGNauWkH"
        ]
      }
    }, 
    {
      "value": 9779649.99593360,
      "n": 1,
      "scriptPubKey": {
        "asm": "OP_DUP OP_HASH160 eef4a085e5fb98772bd18c812d6ce875b68a490c OP_EQUALVERIFY OP_CHECKSIG",
        "hex": "76a914eef4a085e5fb98772bd18c812d6ce875b68a490c88ac",
        "reqSigs": 1,
        "type": "pubkeyhash",
        "addresses": [
          "RX4fxA3BBG1QQC7ZwJgHvaikE8bEHnguEL"
        ]
      }
    }
  ]
}

4) 02846a60e13009e11ed0745e17028b20e210dba1a9a4aa6bf5ab33c8ebd0cb3f

css@css-Latitude-E6430:~/MyLife/Projects/vccoin/src$ ./vccoin-cli getrawtransaction "02846a60e13009e11ed0745e17028b20e210dba1a9a4aa6bf5ab33c8ebd0cb3f"
02000000029784dedfe7fe57360b693d95942931215243697a39bee58278530992dc705cdd010000006b4830450221008260417338e876a4439617b0dc0f828c66404be9dac004867fe453e1daa02ba0022006f66885f6fb03a867792347489cf553d27325605a0cf28cec2bd4c19950c06e012103ce66ee8f3e950f1e2ab07d251af80ec1f9466cc77dfb01d691772de041e77216feffffffe0ac631d0ae6fc4b7ff50ecea08df5dd10eee132db8ce241e9f430cdddacb303010000006a473044022021146afe6030bcc62ccf7fa1603ad540566c8e8cc37bfb99ae4839c7623a81a602200dc3f56825b9b634e109138220071ee4630a2cdd20b2831c69a5c48dfe7e4d08012102559bac82464d5a2c1901f5baf926addcb503cd103fbba6cdd9ad874d05daedb8feffffff0200e1f505000000001976a914ccd579dedfb61ebb2c7a11f3df16dd80d43ae3ab88acf4107802000000001976a9149b500cb52b29275d0fed6547f2823e8defd8cf7f88ac1f020000
css@css-Latitude-E6430:~/MyLife/Projects/vccoin/src$ ./vccoin-cli decoderawtransaction "02000000029784dedfe7fe57360b693d95942931215243697a39bee58278530992dc705cdd010000006b4830450221008260417338e876a4439617b0dc0f828c66404be9dac004867fe453e1daa02ba0022006f66885f6fb03a867792347489cf553d27325605a0cf28cec2bd4c19950c06e012103ce66ee8f3e950f1e2ab07d251af80ec1f9466cc77dfb01d691772de041e77216feffffffe0ac631d0ae6fc4b7ff50ecea08df5dd10eee132db8ce241e9f430cdddacb303010000006a473044022021146afe6030bcc62ccf7fa1603ad540566c8e8cc37bfb99ae4839c7623a81a602200dc3f56825b9b634e109138220071ee4630a2cdd20b2831c69a5c48dfe7e4d08012102559bac82464d5a2c1901f5baf926addcb503cd103fbba6cdd9ad874d05daedb8feffffff0200e1f505000000001976a914ccd579dedfb61ebb2c7a11f3df16dd80d43ae3ab88acf4107802000000001976a9149b500cb52b29275d0fed6547f2823e8defd8cf7f88ac1f020000"
{
  "txid": "02846a60e13009e11ed0745e17028b20e210dba1a9a4aa6bf5ab33c8ebd0cb3f",
  "hash": "02846a60e13009e11ed0745e17028b20e210dba1a9a4aa6bf5ab33c8ebd0cb3f",
  "version": 2,
  "size": 373,
  "vsize": 373,
  "locktime": 543,
  "vin": [
    {
      "txid": "dd5c70dc9209537882e5be397a69435221312994953d690b3657fee7dfde8497",
      "vout": 1,
      "scriptSig": {
        "asm": "30450221008260417338e876a4439617b0dc0f828c66404be9dac004867fe453e1daa02ba0022006f66885f6fb03a867792347489cf553d27325605a0cf28cec2bd4c19950c06e[ALL] 03ce66ee8f3e950f1e2ab07d251af80ec1f9466cc77dfb01d691772de041e77216",
        "hex": "4830450221008260417338e876a4439617b0dc0f828c66404be9dac004867fe453e1daa02ba0022006f66885f6fb03a867792347489cf553d27325605a0cf28cec2bd4c19950c06e012103ce66ee8f3e950f1e2ab07d251af80ec1f9466cc77dfb01d691772de041e77216"
      },
      "sequence": 4294967294
    }, 
    {
      "txid": "03b3acddcd30f4e941e28cdb32e1ee10ddf58da0ce0ef57f4bfce60a1d63ace0",
      "vout": 1,
      "scriptSig": {
        "asm": "3044022021146afe6030bcc62ccf7fa1603ad540566c8e8cc37bfb99ae4839c7623a81a602200dc3f56825b9b634e109138220071ee4630a2cdd20b2831c69a5c48dfe7e4d08[ALL] 02559bac82464d5a2c1901f5baf926addcb503cd103fbba6cdd9ad874d05daedb8",
        "hex": "473044022021146afe6030bcc62ccf7fa1603ad540566c8e8cc37bfb99ae4839c7623a81a602200dc3f56825b9b634e109138220071ee4630a2cdd20b2831c69a5c48dfe7e4d08012102559bac82464d5a2c1901f5baf926addcb503cd103fbba6cdd9ad874d05daedb8"
      },
      "sequence": 4294967294
    }
  ],
  "vout": [
    {
      "value": 1.00000000,
      "n": 0,
      "scriptPubKey": {
        "asm": "OP_DUP OP_HASH160 ccd579dedfb61ebb2c7a11f3df16dd80d43ae3ab OP_EQUALVERIFY OP_CHECKSIG",
        "hex": "76a914ccd579dedfb61ebb2c7a11f3df16dd80d43ae3ab88ac",
        "reqSigs": 1,
        "type": "pubkeyhash",
        "addresses": [
          "RTxFfE4KtrjbNcr26ms1ARDTxw6S3ss7uf"
        ]
      }
    }, 
    {
      "value": 0.41423092,
      "n": 1,
      "scriptPubKey": {
        "asm": "OP_DUP OP_HASH160 9b500cb52b29275d0fed6547f2823e8defd8cf7f OP_EQUALVERIFY OP_CHECKSIG",
        "hex": "76a9149b500cb52b29275d0fed6547f2823e8defd8cf7f88ac",
        "reqSigs": 1,
        "type": "pubkeyhash",
        "addresses": [
          "RPSQiCLNj7mEh4RgkxrkRVAzVBv99WtyJr"
        ]
      }
    }
  ]
}

5) 02846a60e13009e11ed0745e17028b20e210dba1a9a4aa6bf5ab33c8ebd0cb3f

css@css-Latitude-E6430:~/MyLife/Projects/vccoin/src$ ./vccoin-cli getrawtransaction "02846a60e13009e11ed0745e17028b20e210dba1a9a4aa6bf5ab33c8ebd0cb3f"
02000000029784dedfe7fe57360b693d95942931215243697a39bee58278530992dc705cdd010000006b4830450221008260417338e876a4439617b0dc0f828c66404be9dac004867fe453e1daa02ba0022006f66885f6fb03a867792347489cf553d27325605a0cf28cec2bd4c19950c06e012103ce66ee8f3e950f1e2ab07d251af80ec1f9466cc77dfb01d691772de041e77216feffffffe0ac631d0ae6fc4b7ff50ecea08df5dd10eee132db8ce241e9f430cdddacb303010000006a473044022021146afe6030bcc62ccf7fa1603ad540566c8e8cc37bfb99ae4839c7623a81a602200dc3f56825b9b634e109138220071ee4630a2cdd20b2831c69a5c48dfe7e4d08012102559bac82464d5a2c1901f5baf926addcb503cd103fbba6cdd9ad874d05daedb8feffffff0200e1f505000000001976a914ccd579dedfb61ebb2c7a11f3df16dd80d43ae3ab88acf4107802000000001976a9149b500cb52b29275d0fed6547f2823e8defd8cf7f88ac1f020000
css@css-Latitude-E6430:~/MyLife/Projects/vccoin/src$ ./vccoin-cli decoderawtransaction "02000000029784dedfe7fe57360b693d95942931215243697a39bee58278530992dc705cdd010000006b4830450221008260417338e876a4439617b0dc0f828c66404be9dac004867fe453e1daa02ba0022006f66885f6fb03a867792347489cf553d27325605a0cf28cec2bd4c19950c06e012103ce66ee8f3e950f1e2ab07d251af80ec1f9466cc77dfb01d691772de041e77216feffffffe0ac631d0ae6fc4b7ff50ecea08df5dd10eee132db8ce241e9f430cdddacb303010000006a473044022021146afe6030bcc62ccf7fa1603ad540566c8e8cc37bfb99ae4839c7623a81a602200dc3f56825b9b634e109138220071ee4630a2cdd20b2831c69a5c48dfe7e4d08012102559bac82464d5a2c1901f5baf926addcb503cd103fbba6cdd9ad874d05daedb8feffffff0200e1f505000000001976a914ccd579dedfb61ebb2c7a11f3df16dd80d43ae3ab88acf4107802000000001976a9149b500cb52b29275d0fed6547f2823e8defd8cf7f88ac1f020000"
{
  "txid": "02846a60e13009e11ed0745e17028b20e210dba1a9a4aa6bf5ab33c8ebd0cb3f",
  "hash": "02846a60e13009e11ed0745e17028b20e210dba1a9a4aa6bf5ab33c8ebd0cb3f",
  "version": 2,
  "size": 373,
  "vsize": 373,
  "locktime": 543,
  "vin": [
    {
      "txid": "dd5c70dc9209537882e5be397a69435221312994953d690b3657fee7dfde8497",
      "vout": 1,
      "scriptSig": {
        "asm": "30450221008260417338e876a4439617b0dc0f828c66404be9dac004867fe453e1daa02ba0022006f66885f6fb03a867792347489cf553d27325605a0cf28cec2bd4c19950c06e[ALL] 03ce66ee8f3e950f1e2ab07d251af80ec1f9466cc77dfb01d691772de041e77216",
        "hex": "4830450221008260417338e876a4439617b0dc0f828c66404be9dac004867fe453e1daa02ba0022006f66885f6fb03a867792347489cf553d27325605a0cf28cec2bd4c19950c06e012103ce66ee8f3e950f1e2ab07d251af80ec1f9466cc77dfb01d691772de041e77216"
      },
      "sequence": 4294967294
    }, 
    {
      "txid": "03b3acddcd30f4e941e28cdb32e1ee10ddf58da0ce0ef57f4bfce60a1d63ace0",
      "vout": 1,
      "scriptSig": {
        "asm": "3044022021146afe6030bcc62ccf7fa1603ad540566c8e8cc37bfb99ae4839c7623a81a602200dc3f56825b9b634e109138220071ee4630a2cdd20b2831c69a5c48dfe7e4d08[ALL] 02559bac82464d5a2c1901f5baf926addcb503cd103fbba6cdd9ad874d05daedb8",
        "hex": "473044022021146afe6030bcc62ccf7fa1603ad540566c8e8cc37bfb99ae4839c7623a81a602200dc3f56825b9b634e109138220071ee4630a2cdd20b2831c69a5c48dfe7e4d08012102559bac82464d5a2c1901f5baf926addcb503cd103fbba6cdd9ad874d05daedb8"
      },
      "sequence": 4294967294
    }
  ],
  "vout": [
    {
      "value": 1.00000000,
      "n": 0,
      "scriptPubKey": {
        "asm": "OP_DUP OP_HASH160 ccd579dedfb61ebb2c7a11f3df16dd80d43ae3ab OP_EQUALVERIFY OP_CHECKSIG",
        "hex": "76a914ccd579dedfb61ebb2c7a11f3df16dd80d43ae3ab88ac",
        "reqSigs": 1,
        "type": "pubkeyhash",
        "addresses": [
          "RTxFfE4KtrjbNcr26ms1ARDTxw6S3ss7uf"
        ]
      }
    }, 
    {
      "value": 0.41423092,
      "n": 1,
      "scriptPubKey": {
        "asm": "OP_DUP OP_HASH160 9b500cb52b29275d0fed6547f2823e8defd8cf7f OP_EQUALVERIFY OP_CHECKSIG",
        "hex": "76a9149b500cb52b29275d0fed6547f2823e8defd8cf7f88ac",
        "reqSigs": 1,
        "type": "pubkeyhash",
        "addresses": [
          "RPSQiCLNj7mEh4RgkxrkRVAzVBv99WtyJr"
        ]
      }
    }
  ]
}

6) 2f99ed72be159d879adb8460209abecd1f58f0cd173ca08945f8c2001c915750
7) dbb752d2a956bf5b7529418f7fbd1b5a2161fba9663b7f0c169965437a3ea856
8) 3ab7d6dece73e8ab36695c635b132d5ddb2b6838c052455a0aaa84e1e294e065
9) b22136db58a4157782ad9f5ddafcf5304c79a1f761a8ae31c8494443863d9979
10) ea5b7d4cad32673a633986080252ac57416d8b26829036886cf49ff2c5ad8f85
11) 3978510aacfa3765e7ca30eb95b81fbb39b206deb638bf1b83a70f3908362094
12) 6f8ee6cd9b34e731ce6f111fc1f359cbf7fa160b276193110b0939d4153573a8
13) 2fc5f65304d6d74c116c49909ea09d5da22ace263050d85c661e4fc4bdfa78e5
14) 1511f3c36178db522288396b7ba34d7c59a6ffb9d7dbc9779b1f85a7cbfe35ec
15) 7f7cb85c5596b3d2a85998b3b42fb52a59e648bc4a886d2193e470c0bab9fdff
